:100000000C942A000C9447000C9447000C94470071
:100010000C9447000C9447000C9447000C94470044
:100020000C9447000C9447000C9479020C94470000
:100030000C9447000C9447000C9447000C94470024
:100040000C9447000C9447000C9447000C94470014
:100050000C94470011241FBECFE5D8E0DEBFCDBF12
:1000600011E0A0E6B0E0EAE4FDE102C005900D92E7
:10007000A431B107D9F712E0A4E1B1E001C01D92AB
:10008000AF3CB107E1F70E94DF0B0C94A30E0C9478
:100090000000FC0185819681009719F001979683F5
:1000A000858382818083838181830895CF93DF93C9
:1000B0008091F701813059F0813028F0823021F1B0
:1000C000833061F525C081E08093F70134C08091D1
:1000D0001901882381F182E08093F701CFEAD2E011
:1000E00080E2FE0111928A95E9F7CE016FE972E094
:1000F0000E94310ECE01409667EA71E00E94310EF7
:1001000081E08093180117C083E08093F70113C04A
:100110001092180181E08093F7010DC01092F70151
:1001200010921801AFEAB2E0E0E6F0E081E1019060
:100130000D928150E1F78091F70190E0DF91CF912E
:1001400008950F931F93CF93DF93F62FE72F022F7E
:10015000132FD42FC52F04C00B2F1A2FD32FC22F2C
:100160006F2F7E2F202F312F4D2F5C2F0E948F0D50
:10017000AB01BC01F02FE12F8D2F9C2FB42FA52FA9
:10018000362F272F411551056105710529F7602F7D
:10019000712FDF91CF911F910F910895823071F0EF
:1001A000833018F4813069F407C0833049F0883017
:1001B00041F482B38F7082BB959808959798089503
:1001C00094980895823071F0833018F4813069F486
:1001D00007C0833049F0883041F482B3806F82BB1E
:1001E000959A0895979A0895949A089520E030E09A
:1001F00070E190E078BBE8B3AC01022E02C05595E7
:1002000047950A94E2F741704E2B48BB623031F0BB
:10021000633031F0613029F4C19A03C0C39A01C040
:10022000C29A2F5F3F4F2830310521F718BA089541
:1002300020E030E090E042B3407F42BB939A62B34B
:10024000AC01022E02C0559547950A94E2F7417021
:10025000462B42BB919A2F5F3F4F2830310559F70B
:10026000929A82B3807F82BB0895FC01379680E02A
:10027000DF0117976C93DF0116976C93DF011597D9
:100280006C93DF0114976C93DF0113976C93DF017C
:1002900012976C93DF0111976C9360838F5F389690
:1002A000883031F70895CF93AC01262F372F80E0A7
:1002B00090E0C8E00AC07D9171936150E1F701962A
:1002C000285F3F4F8830910561F0FC01EE0FFF1F62
:1002D000EE0FFF1FEE0FFF1FE40FF51FD9016C2F6C
:1002E000EACFCF910895CF93DF93CDB7DEB7C05457
:1002F000D0400FB6F894DEBF0FBECDBFDE01119621
:10030000E1E7F0E020E401900D922150E1F7BE0119
:100310006F5F7F4F0E945301C05CDF4F0FB6F894B0
:10032000DEBF0FBECDBFDF91CF910895CF92DF9298
:10033000FF920F931F93CF93DF93CDB7DEB72B962A
:100340008FAD2B97883019F40E94E20096C0C82E1A
:10035000DD24F601EE0FFF1FEE0FFF1FEE0FFF1F54
:100360006AE070E06C0F7D1FE60FF71F20E030E0C1
:1003700000E010E0FF2441E050E09191943069F1F9
:10038000953040F49230B9F09330F0F4913009F0A8
:100390004CC008C09630A9F1963048F1973009F06A
:1003A00044C039C0BA01022E02C0660F771F0A94FA
:1003B000E2F7162B3AC0BA01022E02C0660F771F71
:1003C0000A94E2F7F62A31C0BA01022E02C0660F83
:1003D000771F0A94E2F7062B28C0BA01022E02C04A
:1003E000660F771F0A94E2F7162BF62A1EC0BA0191
:1003F000022E02C0660F771F0A94E2F7162B062B17
:1004000014C0BA01022E02C0660F771F0A94E2F7E9
:10041000F62A062B0AC0BA01022E02C0660F771F09
:100420000A94E2F7162B062BF62A2F5F3F4F28304F
:10043000310509F0A2CF88E00E94E200812F80956B
:1004400061E00E94F600802F809563E00E94F60034
:100450008F2D809562E00E94F60027E030E02C1995
:100460003D0981E090E002C0880F991F2A95E2F7CC
:100470000E94180188E00E94CE00DF91CF911F9169
:100480000F91FF90DF90CF900895DC01CB01809316
:100490000C0190930D01A0930E01B0930F01809376
:1004A0001A0190931B01A0931C01B0931D010895A4
:1004B0008BE083BF8DE78CBF82E089BF12BE809145
:1004C0000C0190910D01A0910E01B0910F0180934C
:1004D0001A0190931B01A0931C01B0931D018FB7CB
:1004E00080688FBF089513BE089581E080931E0138
:1004F00008951F920F920FB60F9211242F933F93DE
:100500004F935F936F937F938F939F93AF93BF931B
:10051000EF93FF9380911A0190911B01A0911C0110
:10052000B0911D010197A109B10980931A0190931F
:100530001B01A0931C01B0931D010097A105B105FB
:1005400091F40E94750280910C0190910D01A0918F
:100550000E01B0910F0180931A0190931B01A0939B
:100560001C01B0931D01FF91EF91BF91AF919F913D
:100570008F917F916F915F914F913F912F910F904C
:100580000FBE0F901F9018950F93FC01608362833C
:10059000418343832483058316820F9108950F932B
:1005A0001F93CF93DF93CDB7DEB727970FB6F8949D
:1005B000DEBF0FBECDBF202F30E0220F331F220F32
:1005C000331F220F331F210F311D280F391FF9014F
:1005D000408327960FB6F894DEBF0FBECDBFDF91E4
:1005E000CF911F910F910895FC018181873018F4FC
:1005F0008F5F818308958081873029F0882319F0E7
:10060000CF010E9449000895FC018181882319F0DF
:100610008150818308958081873029F0882319F0E3
:10062000CF010E9449000895FC018081882311F0C8
:10063000815080830895FC018081873010F48F5FA2
:1006400080830895209115012130C1F581309105F5
:1006500041F08630910531F1009759F581E090E045
:10066000089580911601823079F0833018F481303A
:10067000C9F405C0843069F08830A1F40FC088E95E
:1006800092E00E94F4020EC088E992E00E941403F6
:1006900009C088E992E00E941B0304C088E992E047
:1006A0000E94040380911601882331F481E090E0D8
:1006B000089580E090E0089586E090E008956F92BC
:1006C0007F928F929F92AF92BF92CF92DF92FF92D2
:1006D0000F931F93CF93DF938C01EB010E941A0EAF
:1006E00064E670E00E947C0D80931F0191E08833E6
:1006F00008F490E0F801908B8889813011F58989A0
:100700008823D1F481E0818BC0E0D0E00F2EF7E0A8
:100710008F2E9924F02DFF24F39466247724689477
:1007200061F80F2EF3E0AF2EBB24F02D0F2EFAE070
:10073000CF2EDD24F02D14C0813019F4F801118A78
:10074000E3CF0E941A0E62E370E00E947C0D80935A
:100750001F0191E0893108F090E0F801918BD4CF2E
:10076000D33028F0F801EC0FF11D10825AC0F801C7
:100770008089882339F50E941A0EB6010E947C0DEB
:1007800080931F018730C8F00E941A0EC03198F480
:10079000B5010E947C0D8F3F09F46CC09C2F9F5FB8
:1007A000890FF801EC0FF11DF082CF5FC03119F015
:1007B000C817B9F75FC0DF5F34C0F801EC0FF11D57
:1007C00010822FC0813069F50E941A0EB4010E9478
:1007D0007C0D80931F01DD2349F08330F0F00E94EF
:1007E0001A0EB5010E947C0D8F5F06C00E941A0E82
:1007F000B3010E947C0D8E5FC03168F48823E9F15B
:100800008C0FF801EC0FF11DF082CF5FC03119F0B1
:10081000C817B9F732C0DF5F04C0F801EC0FF11D53
:100820001082CF5FC03108F49BCF0E941A0E66E0A1
:1008300070E00E947C0D80931F0190E022E330E085
:10084000829FA001839F500D929F500D112440570D
:100850005E4FF801538B428BDF91CF911F910F9127
:10086000FF90DF90CF90BF90AF909F908F907F9040
:100870006F900895DF5FCF5FD4CFDF5FCF5FD1CFC1
:10088000FC0182E0818B808B84E690E0938B828BED
:10089000AE2FBF2F80E1FD0111928A95E9F70895EF
:1008A000FC0182E0818B83E0808B84E690E0938B77
:1008B000828BAE2FBF2F80E1FD0111928A95E9F75F
:1008C0000895BF92CF92DF92EF92FF920F931F9302
:1008D000CF93DF93CDB7DEB7C455DF4FC880D98043
:1008E000CC5AD0408E01045E1F4F60E070E0EE24D1
:1008F00054E0BB246894B1F8FF24F3941FC0442350
:1009000039F49081992311F0FC920CC01C920AC01A
:10091000413039F49081992311F01C9203C0BC92AC
:1009200001C05C938F5F11963196883041F76F5FFD
:100930007F4F0C5E1F4F68307105F9F0F801408160
:10094000DB01AA0FBB1FAA0FBB1FAA0FBB1FAC0D59
:10095000BD1DCB01880F991F880F991F9C01220F85
:10096000331F220F331F820F931FECE0F0E0EC0FD8
:10097000FD1FE80FF91F8E2DC2CFDF91CF911F9180
:100980000F91FF90EF90DF90CF90BF900895EF927E
:10099000FF920F931F93CF938230910508F0A2C06E
:1009A000809115018150823008F06AC08DB79EB7E2
:1009B000825A90400FB6F8949EBF0FBE8DBF01962D
:1009C000DC01E8EFF1E020EA01900D922150E1F71F
:1009D00080569F4F0F2EF7EBEF2EF1E0FF2EF02DFC
:1009E000FC01F182E0820E9461048DB79EB78E55B2
:1009F0009F4F0FB6F8949EBF0FBE8DBFC7010091E9
:100A000098021091990220919A0230919B02409194
:100A10009C0250919D0260919E020E94CF02C09163
:100A20002D01EDB7FEB7E154F0400FB6F894FEBFCC
:100A30000FBEEDBF8DB79EB70196FC01D70120E434
:100A40000D9001922150E1F7805C9F4FFC01C08323
:100A50000E9496018DB79EB78F5B9F4F0FB6F8949B
:100A60009EBF0FBE8DBFC73028F010922D0181E0D0
:100A700090E03AC0CF5FC0932D0181E090E034C098
:100A8000C0912D01EDB7FEB7E154F0400FB6F894D8
:100A9000FEBF0FBEEDBF8DB79EB70196DC01E7EB41
:100AA000F1E020E401900D922150E1F7805C9F4F2E
:100AB000FC01C0830E9496018DB79EB78F5B9F4F4C
:100AC0000FB6F8949EBF0FBE8DBFC73028F01092AE
:100AD0002D0181E090E008C0CF5FC0932D0181E03F
:100AE00090E002C080E090E0CF911F910F91FF90C5
:100AF000EF9008950F931F93CF93DF938C010E9483
:100B0000500460E070E001C0BE01EB012196CE010F
:100B1000880F991F880F991F9C01220F331F220FE6
:100B2000331F280F391F660F771F660F771FCB0102
:100B3000880F991F880F991F680F791F600F711F09
:100B4000C801820F931F0E945F03C630D105E1F6F2
:100B5000C80184579F4F0E944004DF91CF911F919D
:100B60000F910895CF93DF93EC0189898823B1F425
:100B70002F85DE011F96FE0170968FE09E91929365
:100B80008150E1F7288388898130E9F4FB01808175
:100B90008417C9F4CB010E94F40215C0813099F486
:100BA000FE012191DE018FE091919D938150E1F74B
:100BB0002F878889813039F4FB018081841719F4EB
:100BC000CB010E940403DF91CF910895EF92FF9231
:100BD0000F931F93CF93DF937C0182E0E816F1041B
:100BE00009F4E9C093E0E916F1044CF4E114F104CE
:100BF000B1F0E1E0EE16F10409F074C276C0F4E061
:100C0000EF16F10409F4A3C184E0E816F1040CF432
:100C100038C195E0E916F10409F064C2FEC1809183
:100C20001501813009F05EC2CCE0D2E0CE0168E966
:100C300072E041E00E94B205EDB7FEB7E25AF04023
:100C40000FB6F894FEBF0FBEEDBF8DB79EB70196ED
:100C5000FC01649720EA099001922150E1F7805647
:100C60009F4FC7EBD1E0FC01D183C0830E94610498
:100C70008DB79EB78E559F4F0FB6F8949EBF0FBE8F
:100C80008DBFCE01009198021091990220919A0295
:100C900030919B0240919C0250919D0260919E0276
:100CA0000E94CF02EDB7FEB7E154F0400FB6F894C2
:100CB000FEBF0FBEEDBF8DB79EB70196FC0120E4CD
:100CC000099001922150E1F7805C9F4F21E0FC01E7
:100CD00020830E9496018DB79EB78F5B9F4F0FB602
:100CE000F8949EBF0FBE8DBFFDC18091150181306C
:100CF00009F0F8C1C0E2D2E0CE0168E972E042E05A
:100D00000E94B205EDB7FEB7E25AF0400FB6F89474
:100D1000FEBF0FBEEDBF8DB79EB70196FC01A89731
:100D200020EA099001922150E1F780569F4FC7EBCE
:100D3000D1E0FC01D183C0830E9461048DB79EB7CE
:100D40008E559F4F0FB6F8949EBF0FBE8DBFCE013C
:100D5000009198021091990220919A0230919B0281
:100D600040919C0250919D0260919E020E94CF0290
:100D7000EDB7FEB7E154F0400FB6F894FEBF0FBEDA
:100D8000EDBF8DB79EB70196FC0120E4099001925A
:100D90002150E1F7805C9F4F22E0FC0120830E94FC
:100DA00096018DB79EB78F5B9F4F0FB6F8949EBF8D
:100DB0000FBE8DBF97C180911501813009F092C19E
:100DC000C4E3D2E0CE0168E972E043E00E94B205DC
:100DD000EDB7FEB7E25AF0400FB6F894FEBF0FBE73
:100DE000EDBF8DB79EB70196FC01EC9720EA099004
:100DF00001922150E1F780569F4FC7EBD1E0FC01F3
:100E0000D183C0830E9461048DB79EB78E559F4FDA
:100E10000FB6F8949EBF0FBE8DBFCE010091980211
:100E20001091990220919A0230919B0240919C026C
:100E300050919D0260919E020E94CF02EDB7FEB7D5
:100E4000E154F0400FB6F894FEBF0FBEEDBF8DB772
:100E50009EB70196FC0120E4099001922150E1F730
:100E6000805C9F4F23E0FC0120830E9496018DB798
:100E70009EB78F5B9F4F0FB6F8949EBF0FBE8DBF7E
:100E800031C180911501813009F02CC188E492E0D4
:100E900068E972E044E00E94B205EDB7FEB7E25A9D
:100EA000F0400FB6F894FEBF0FBEEDBF8DB79EB7F2
:100EB0000196FC01A8EFB1E020EA0D9001922150CB
:100EC000E1F780569F4FC7EBD1E0FC01D183C0838F
:100ED0000E9461048DB79EB78E559F4F0FB6F89450
:100EE0009EBF0FBE8DBFCE01009198021091990256
:100EF00020919A0230919B0240919C0250919D0258
:100F000060919E020E94CF02EDB7FEB7E154F0401F
:100F10000FB6F894FEBF0FBEEDBF8DB79EB701961A
:100F2000FC0120E4099001922150E1F7805C9F4F81
:100F300024E0FC0120830E9496018DB79EB78F5B51
:100F40009F4F0FB6F8949EBF0FBE8DBFCBC0809150
:100F50001501813009F0C6C08CE592E068E972E0C5
:100F600045E00E94B205EDB7FEB7E25AF0400FB679
:100F7000F894FEBF0FBEEDBF8DB79EB70196FC0182
:100F8000A8EFB1E020EA0D9001922150E1F78056E0
:100F90009F4FC7EBD1E0FC01D183C0830E94610465
:100FA0008DB79EB78E559F4F0FB6F8949EBF0FBE5C
:100FB0008DBFCE01009198021091990220919A0262
:100FC00030919B0240919C0250919D0260919E0243
:100FD0000E94CF02EDB7FEB7E154F0400FB6F8948F
:100FE000FEBF0FBEEDBF8DB79EB70196FC0120E49A
:100FF000099001922150E1F7805C9F4F25E0FC01B0
:1010000020830E9496018DB79EB78F5B9F4F0FB6CE
:10101000F8949EBF0FBE8DBF65C0809115018130D1
:1010200009F060C080E792E068E972E046E00E9463
:10103000B205EDB7FEB7E25AF0400FB6F894FEBF26
:101040000FBEEDBF8DB79EB70196FC01A8EFB1E0D2
:1010500020EA0D9001922150E1F780569F4FC7EB97
:10106000D1E0FC01D183C0830E9461048DB79EB79B
:101070008E559F4F0FB6F8949EBF0FBE8DBFCE0109
:10108000009198021091990220919A0230919B024E
:1010900040919C0250919D0260919E020E94CF025D
:1010A000EDB7FEB7E154F0400FB6F894FEBF0FBEA7
:1010B000EDBF8DB79EB70196FC0120E40990019227
:1010C0002150E1F7805C9F4F26E0FC0120830E94C5
:1010D00096018DB79EB78F5B9F4F0FB6F8949EBF5A
:1010E0000FBE8DBF8E2D9F2DDF91CF911F910F9140
:1010F000FF90EF900895CF93DF93CDB7DEB7CB5538
:10110000DF4F2881C55AD040CA55DF4F3881C65AB3
:10111000D040822F90E0880F991F880F991FFC0103
:10112000EE0FFF1FEE0FFF1F8E0F9F1FFC01E30F3F
:10113000F11D85E090E08C0F9D1FE80FF91F808165
:101140008823C9F0822F90E0880F991F880F991F7C
:10115000FC01EE0FFF1FEE0FFF1F8E0F9F1FE5E03C
:10116000F0E0EC0FFD1FE80FF91F81E09089992353
:10117000D1F080E018C0822F90E0880F991F880F6F
:10118000991FFC01EE0FFF1FEE0FFF1F8E0F9F1F19
:10119000E5E0F0E0EC0FFD1FE80FF91F81E090891A
:1011A000913009F080E0DF91CF9108950F93CF93B4
:1011B000DF9382309105E9F1833091053CF400978B
:1011C00091F08130910509F0C8C016C085309105B5
:1011D00009F4ACC08630910509F4B9C0843091059A
:1011E00009F0BBC094C087EB91E00E94730110929C
:1011F0002201109221013CC180911601882309F43B
:1012000037C1807F09F434C110921401809121010B
:10121000909122010E941F0E88EF91E00E947A05B2
:1012200088E992E067E044E023E003E00E94C40222
:101230007DC180919D0290919E02009731F487EBD1
:1012400091E061E00E943501DEC08091980290E05B
:10125000880F991F880F991FFC01EE0FFF1FEE0FDB
:10126000FF1F8E0F9F1FFC01E850FE4F80898330C7
:1012700009F05CC1809114018F5F80931401CFE964
:10128000D2E0CE0160E270E040E150E00E942A0E20
:1012900087EA91E060E270E040E150E00E942A0EAF
:1012A00063E271E08AE0FB0111928A95E9F780918F
:1012B0009D0290919E024AE050E00E94380EE1EBC0
:1012C000F0E08EE0019009928150E1F7C3E2D1E0B5
:1012D00086EA92E0BE010E94310E8091140190E0F6
:1012E000BE014AE050E00E94380EA7EAB1E0EFEB01
:1012F000F0E08AE001900D928150E1F78EEA91E0F2
:1013000063E271E00E94310E84E090E078C088EFE3
:1013100091E00E947A0588E992E067E040919902A5
:1013200023E000919D020E94C40200C18091160139
:10133000882309F468C0807F09F465C087EB91E0D9
:101340000E9473011092220110922101C0C080916D
:101350001601882309F0BBC08BC08FE992E060E2E0
:1013600070E040E150E00E942A0E87EA91E060E2DE
:1013700070E040E150E00E942A0E80E090E03FC023
:1013800088E992E00E94490063E271E08AE0FB0193
:1013900011928A95E9F780919D0290919E024AE010
:1013A00050E00E94380EAFE9B2E0E1EBF0E08EE0F1
:1013B00001900D928150E1F7C3E2D1E086EA92E01C
:1013C000BE010E94310E8091140190E0BE014AE0FE
:1013D00050E00E94380EA7EAB1E0EFEBF0E08AE0BF
:1013E00001900D928150E1F78EEA91E063E271E0A5
:1013F0000E94310E81E08093150182E090E0DF9140
:10140000CF910F910895CFE9D2E0CE0160E270E074
:1014100040E150E00E942A0E87EA91E060E270E02D
:1014200040E150E00E942A0EE9ECF0E08BE00190F0
:1014300009928150E1F78091140190E063E271E03C
:101440004AE050E00E94380EA7EAB1E0E4EDF0E097
:1014500088E001900D928150E1F78EEA91E063E21D
:1014600071E00E94310E1092150185E090E0C7CF27
:10147000CFE9D2E0CE0160E270E040E150E00E94AE
:101480002A0E87EA91E060E270E040E150E00E94BD
:101490002A0EECEDF0E080E1019009928150E1F735
:1014A000A7EAB1E0ECEEF0E089E001900D92815006
:1014B000E1F710921501809121019091220101968E
:1014C000909322018093210181E090E098CFCFE9B1
:1014D000D2E0CE0160E270E040E150E00E942A0ECE
:1014E00087EA91E060E270E040E150E00E942A0E5D
:1014F000ECEDF0E080E1019009928150E1F7A7EA7C
:10150000B1E0ECEEF0E089E001900D928150E1F75E
:1015100010921501809121019091220101969093E2
:1015200022018093210186E090E069CF8FE992E06B
:1015300060E270E040E150E00E942A0E87EA91E00C
:1015400060E270E040E150E00E942A0E2DB73EB705
:10155000275A30400FB6F8943EBF0FBE2DBF8DB74F
:101560009EB70196DC01E8EFF1E020EA01900D92D0
:101570002150E1F7DC01A056BF4FE8E9F2E087E037
:1015800001900D928150E1F70E947B08EDB7FEB704
:10159000E955FF4F0FB6F894FEBF0FBEEDBF813087
:1015A00009F0F2CEEDCE442351F041E050E09A0133
:1015B00002C0220F331F6A95E2F7822B089521E0C3
:1015C00030E0A90102C0440F551F6A95E2F7BA0145
:1015D00060958623089521E030E0A90102C0440F00
:1015E000551F6A95E2F784230895CF93C82F88B3D7
:1015F00065E040E00E94D30A88BBCBBB88B366E0BD
:1016000041E00E94D30A88BBCF91089588B366E079
:1016100040E00E94D30A88BB0895CF93C82F88B3B7
:1016200065E041E00E94D30A88BBCC2311F0CBBB1C
:1016300002C080E28BBB88B366E041E00E94D30A1F
:1016400088BBCF91089588B366E040E00E94D30A3A
:1016500088BB0895803120F480580E94F50A0895CF
:1016600080550E94F50A0895CF9384309105D9F1F1
:10167000853091058CF481309105F9F08230910527
:101680001CF40097B9F05BC082309105E1F0833023
:10169000910509F054C01FC08630910589F186304C
:1016A000910524F18730910591F18830910509F079
:1016B00046C040C0109220017AC0809120018A303B
:1016C00008F042C074C00E94060B8FE00E94F50A29
:1016D00083E090E05FC00E94060B81E00E94F50A63
:1016E00084E090E057C00E94060B56C0809118011C
:1016F000882309F451C0109219011092200152C0A0
:101700000E94060B80910B018823F1F131C0C0913A
:101710002001C03250F480910B01882331F00E94E7
:10172000230BCF5FC09320013DC00E94230B88E0B4
:1017300090E030C020911801222371F12BC010924B
:10174000190180E090E026C088E30E94F50A82E05B
:1017500090E020C0809120010E942A0B86E090E05A
:1017600019C0809117010E942A0B86E090E012C0F8
:1017700080912001EFEAF2E0E80FF11D80810E94E4
:101780000D0B87E090E006C08091AF020E940D0B28
:1017900087E090E0CF91089581E08093190185E082
:1017A00090E0F8CF80910B018823A1F6DACF8091E9
:1017B00020018F5F8093200181E090E0EBCFCF93F9
:1017C000DF93CDB7DEB766970FB6F894DEBF0FBED6
:1017D000CDBF8FEF8ABB1BBA87BB18BA14BA85BBC3
:1017E00081BB12BADE011196E5EFF0E086E10190CF
:1017F0000D928150E1F710922E0184E690E0A0E076
:10180000B0E080932F0190933001A0933101B09309
:1018100032018093330190933401A0933501B0934A
:10182000360126ED38E03093380120933701EFEF91
:10183000E09339014AE050E060E070E040933A0103
:1018400050933B0160933C0170933D0140933E01F6
:1018500050933F01609340017093410126E530E0D1
:101860003093430120934201E093440145E050E06E
:1018700060E070E04093450150934601609347015A
:10188000709348014093490150934A0160934B0182
:1018900070934C0124E33BE030934E0120934D01C3
:1018A00010924F0141E050E060E070E04093500141
:1018B000509351016093520170935301409354012E
:1018C00050935501609356017093570127EC34E013
:1018D000309359012093580110925A0180935B0173
:1018E00090935C01A0935D01B0935E0180935F01D2
:1018F00090936001A0936101B093620122E233E012
:101900003093640120936301109265018093660116
:1019100090936701A0936801B093690180936A0175
:1019200090936B01A0936C01B0936D0126EE35E0AE
:1019300030936F0120936E0141E0409370018093DA
:10194000710190937201A0937301B093740180931D
:10195000750190937601A0937701B093780130934D
:101960007A012093790142E040937B0180937C01CE
:1019700090937D01A0937E01B0937F0180938001BD
:1019800090938101A0938201B093830130938501EC
:101990002093840143E040938601809387019093D4
:1019A0008801A0938901B0938A0180938B01909361
:1019B0008C01A0938D01B0938E0130939001209300
:1019C0008F0144E0409391018093920190939301A1
:1019D000A0939401B0939501809396019093970101
:1019E000A0939801B093990130939B0120939A01A1
:1019F00045E040939C0180939D0190939E01A093AC
:101A00009F01B093A0018093A1019093A201A093A4
:101A1000A301B093A4013093A6012093A50161E036
:101A200070E080E090E00E9445020E9458020F2E74
:101A3000FAEB6F2EF1E07F2EF02D8824992483B3EA
:101A40008095809316015E010894A11CB11C63016E
:101A500094017401D5010D911D915D01F8018581FD
:101A60009681A781B08541815281638174818417F9
:101A70009507A607B70700F1C901059786309105BC
:101A800058F4D6018D919C91AA2797FDA095BA2F65
:101A900081839283A383B483D8018C911996ED91AD
:101AA000FC911A97992787FD90950995F8018083F5
:101AB0001582168217821086F80185819681A7818A
:101AC000B0850196A11DB11D85839683A783B0873C
:101AD0000894E11CF11C970184E190E0C80ED91E26
:101AE0009BE0E916F10409F0B5CF80911E0188232F
:101AF000E1F310921E01A3CF97FB092E07260AD00F
:101B000077FD04D02ED006D000201AF47095619590
:101B10007F4F0895F6F7909581959F4F0895A1E224
:101B20001A2EAA1BBB1BFD010DC0AA1FBB1FEE1F57
:101B3000FF1FA217B307E407F50720F0A21BB30BA2
:101B4000E40BF50B661F771F881F991F1A9469F71E
:101B500060957095809590959B01AC01BD01CF017A
:101B60000895AA1BBB1B51E107C0AA1FBB1FA617E4
:101B7000B70710F0A61BB70B881F991F5A95A9F736
:101B800080959095BC01CD0108958F929F92AF9260
:101B9000BF92CF92DF92EF92FF92CF93DF93EC014F
:101BA00088819981AA81BB810097A105B10521F4A3
:101BB00084E299EDABE5B7E0BC01CD012DE133EF57
:101BC00041E050E00E94880E49015A0127EA31E4C1
:101BD00040E050E00E94690E6B017C01C501B40138
:101BE0002CEE34EF4FEF5FEF0E94690EDC01CB016A
:101BF000C80ED91EEA1EFB1EF7FE08C08FEF9FEF2E
:101C0000AFEFBFE7C80ED91EEA1EFB1EC882D982FD
:101C1000EA82FB82C6019F77DF91CF91FF90EF9020
:101C2000DF90CF90BF90AF909F908F9008950E94CB
:101C3000C50D089580E191E00E94C50D0895A0E0D2
:101C4000B0E08093100190931101A0931201B09322
:101C500013010895DC0101C06D9341505040E0F73D
:101C60000895FB01DC0101900D920020E1F7089539
:101C7000FB019F01E8944230C4F04532B4F44A308D
:101C800029F497FB1EF4909581959F4F642F772739
:101C90000E94B10D805D8A330CF0895D8193CB0188
:101CA0000097A1F716F45DE251931082C9010C94DC
:101CB000590EDC01FC01672F71917723E1F7329710
:101CC00004C07C916D9370836291AE17BF07C8F317
:101CD0000895629FD001739FF001829FE00DF11D76
:101CE000649FE00DF11D929FF00D839FF00D749F96
:101CF000F00D659FF00D9927729FB00DE11DF91F42
:101D0000639FB00DE11DF91FBD01CF01112408959E
:101D100097FB092E05260ED057FD04D000DF0AD010
:101D2000001C38F450954095309521953F4F4F4F0A
:101D30005F4F0895F6F790958095709561957F4F68
:0A1D40008F4F9F4F0895F894FFCFD6
:101D4A003132333435363738393031323334353647
:101D5A000000000000000000000303000000000370
:101D6A000303030003030003030003030303030342
:101D7A000000000303030300000000030303030041
:101D8A000003030300000303030303030000030328
:101D9A00034C697665733A202020202020200053C6
:101DAA00636F72653A2020200047414D45204F5607
:101DBA004552210053636F72653A200046726F677D
:101DCA0067657220456E646C657373003120506CD0
:101DDA0061796572002E01390144014F015A01658A
:101DEA000170017B01860191019C01010100000043
:041DFA0001000000E4
:00000001FF
